:100000000C9435000C945D000C945D000C945D0024
:100010000C945D000C945D000C945D000C945D00EC
:100020000C945D000C945D000C945D000C945D00DC
:100030000C945D000C945D000C945D000C945D00CC
:100040000C946B010C945D000C94DB010C94B501D5
:100050000C945D000C945D000C945D000C945D00AC
:100060000C945D000C945D00980211241FBECFEF2C
:10007000D8E0DEBFCDBF11E0A0E0B1E0E4EAF5E0FA
:1000800002C005900D92AA31B107D9F721E0AAE18B
:10009000B1E001C01D92A03CB207E1F710E0C5E35A
:1000A000D0E004C02197FE010E94C502C433D107ED
:1000B000C9F70E940D020C94D0020C940000CF925C
:1000C000DF92EF92FF920F931F93CF93DF936C0118
:1000D0007A018B01C0E0D0E0CE15DF0589F0D801B0
:1000E0006D918D01D601ED91FC910190F081E02D93
:1000F000C6010995892B11F47E0102C02196ECCF2F
:10010000C701DF91CF911F910F91FF90EF90DF908A
:10011000CF900895089580E090E00895FC01538DFC
:10012000448D252F30E0842F90E0821B930B5417D1
:1001300010F0CF96089501970895FC01918D828D5E
:10014000981761F0828DDF01A80FB11D5D968C912B
:10015000928D9F5F9F73928F90E008958FEF9FEF36
:100160000895FC01918D828D981731F0828DE80FF2
:10017000F11D858D90E008958FEF9FEF0895FC01AC
:10018000918D228D892F90E0805C9F4F821B910979
:100190008F73992708958AE191E00E94BF0021E0C2
:1001A000892B09F420E0822F0895FC01848DDF0162
:1001B000A80FB11DA35ABF4F2C91848D90E00196DA
:1001C0008F739927848FA689B7892C93A089B189C9
:1001D0008C9180648C93938D848D981306C00288D3
:1001E000F389E02D80818F7D80830895EF92FF92C7
:1001F0000F931F93CF93DF93EC0181E0888F9B8D4A
:100200008C8D981305C0E889F989808185FD24C00B
:10021000F62E0B8D10E00F5F1F4F0F731127E02E8E
:100220008C8DE8120CC00FB607FCFACFE889F9896B
:10023000808185FFF5CFCE010E94D500F1CF8B8D57
:10024000FE01E80FF11DE35AFF4FF0820B8FEA89A0
:10025000FB898081806207C0EE89FF896083E8891D
:10026000F98980818064808381E090E0DF91CF9183
:100270001F910F91FF90EF900895CF93DF93EC01C2
:10028000888D8823C9F0EA89FB89808185FD05C0B6
:10029000A889B9898C9186FD0FC00FB607FCF5CFF0
:1002A000808185FFF2CFA889B9898C9185FFEDCF38
:1002B000CE010E94D500E7CFDF91CF91089580E075
:1002C00090E0892B29F00E94CB0081110C94000052
:1002D00008950E94CB021F920F920FB60F92112425
:1002E0002F933F938F939F93AF93BF938091BC01C4
:1002F0009091BD01A091BE01B091BF013091BB01B1
:1003000023E0230F2D3720F40196A11DB11D05C058
:1003100026E8230F0296A11DB11D2093BB018093F7
:10032000BC019093BD01A093BE01B093BF01809129
:10033000B7019091B801A091B901B091BA010196AD
:10034000A11DB11D8093B7019093B801A093B9018D
:10035000B093BA01BF91AF919F918F913F912F912F
:100360000F900FBE0F901F9018951F920F920FB60F
:100370000F9211242F933F934F935F936F937F932B
:100380008F939F93AF93BF93EF93FF938AE191E095
:100390000E94D500FF91EF91BF91AF919F918F91F6
:1003A0007F916F915F914F913F912F910F900FBE71
:1003B0000F901F9018951F920F920FB60F92112455
:1003C0002F938F939F93EF93FF93E0912A01F091E6
:1003D0002B018081E0913001F091310182FD12C04A
:1003E0009081809133018F5F8F7320913401821748
:1003F00051F0E0913301F0E0E65EFE4F958F80937F
:10040000330101C08081FF91EF919F918F912F91D6
:100410000F900FBE0F901F901895789484B582604E
:1004200084BD84B5816084BD85B5826085BD85B598
:10043000816085BD80916E00816080936E00109216
:100440008100809181008260809381008091810091
:100450008160809381008091800081608093800022
:100460008091B10084608093B1008091B000816080
:100470008093B00080917A00846080937A008091AC
:100480007A00826080937A0080917A008160809304
:100490007A0080917A00806880937A001092C1007F
:1004A000E0912A01F0912B0182E08083E091260106
:1004B000F09127011082E0912801F09129018FEC41
:1004C000808310923201E0912E01F0912F0186E09D
:1004D0008083E0912C01F0912D01808180618083E7
:1004E000E0912C01F0912D01808188608083E09162
:1004F0002C01F0912D01808180688083E0912C0196
:10050000F0912D0180818F7D808344E050E062E195
:1005100071E08AE191E00E945F0042E050E067E113
:1005200071E08AE191E00E945F000E945F01EDCFDF
:10053000EAE1F1E01382128288EE93E0A0E0B0E0FD
:1005400084839583A683B78384E091E0918380833D
:1005500085EC90E09587848784EC90E09787868788
:1005600080EC90E0918B808B81EC90E0938B828B80
:1005700082EC90E0958B848B86EC90E0978B868B59
:10058000118E128E138E148E0895EE0FFF1F05909C
:10059000F491E02D099481E090E0F8940C94D0025D
:0405A000F894FFCFFD
:1005A40000000000F6005F008E003D01BF009D00CA
:0A05B400B100686F6C61000D0A00D1
:00000001FF
