:100000000C9462000C948A000C948A000C948A0070
:100010000C948A000C948A000C948A000C948A0038
:100020000C948A000C948A000C948A000C948A0028
:100030000C948A000C948A000C948A000C948A0018
:100040000C94FB020C948A000C94C9020C94A30239
:100050000C948A000C948A000C948A000C948A00F8
:100060000C948A000C948A000000000024002700F1
:100070002A0000000000250028002B0000000008D6
:10008000000201000003040700000000000000005F
:1000900000000000230026002900040404040404D6
:1000A0000404020202020202030303030303010227
:1000B00004081020408001020408102001020408F6
:1000C0001020840511241FBECFEFD8E0DEBFCDBFC6
:1000D00011E0A0E0B1E0E4E5FFE002C005900D9280
:1000E000AC33B107D9F721E0ACE3B1E001C01D9218
:1000F000A83EB207E1F710E0C2E6D0E004C02197C5
:10010000FE010E949D07C136D107C9F70E948A03EC
:100110000C94A8070C940000E0914B01F0914C0165
:100120000190F081E02D682F8BE491E00994CF924B
:10013000DF92EF92FF920F931F93CF93DF936C01A7
:100140007A018B01C0E0D0E0CE15DF0589F0D8013F
:100150006D918D01D601ED91FC910190F081E02D22
:10016000C6010995892B11F47E0102C02196ECCFBE
:10017000C701DF91CF911F910F91FF90EF90DF901A
:10018000CF900895089580E090E00895FC01538D8C
:10019000448D252F30E0842F90E0821B930B541761
:1001A00010F0CF96089501970895FC01918D828DEE
:1001B000981761F0828DDF01A80FB11D5D968C91BB
:1001C000928D9F5F9F73928F90E008958FEF9FEFC6
:1001D0000895FC01918D828D981731F0828DE80F82
:1001E000F11D858D90E008958FEF9FEF0895FC013C
:1001F000918D228D892F90E0805C9F4F821B910909
:100200008F73992708958BE491E00E94F70021E015
:10021000892B09F420E0822F0895FC01848DDF01F1
:10022000A80FB11DA35ABF4F2C91848D90E0019669
:100230008F739927848FA689B7892C93A089B18958
:100240008C9180648C93938D848D981306C0028862
:10025000F389E02D80818F7D80830895EF92FF9256
:100260000F931F93CF93DF93EC0181E0888F9B8DD9
:100270008C8D981305C0E889F989808185FD24C09B
:10028000F62E0B8D10E00F5F1F4F0F731127E02E1E
:100290008C8DE8120CC00FB607FCFACFE889F989FB
:1002A000808185FFF5CFCE010E940D01F1CF8B8DAE
:1002B000FE01E80FF11DE35AFF4FF0820B8FEA8930
:1002C000FB898081806207C0EE89FF896083E889AD
:1002D000F98980818064808381E090E0DF91CF9113
:1002E0001F910F91FF90EF900895CF93DF93EC0152
:1002F000888D8823C9F0EA89FB89808185FD05C046
:10030000A889B9898C9186FD0FC00FB607FCF5CF7F
:10031000808185FFF2CFA889B9898C9185FFEDCFC7
:10032000CE010E940D01E7CFDF91CF91089580E0CB
:1003300090E0892B29F00E94030181110C940000A8
:10034000089590E0FC01E458FF4F3491FC01E25520
:10035000FF4F2491FC01E656FF4FE491EE2309F490
:100360003BC0332339F1333091F038F43130A9F008
:10037000323001F584B58F7D12C0373091F03830BE
:10038000A1F03430B9F4809180008F7D03C080915A
:1003900080008F77809380000DC084B58F7784BDF7
:1003A00009C08091B0008F7703C08091B0008F7D2D
:1003B0008093B000F0E0EE0FFF1FEE58FF4FA591C5
:1003C000B4918FB7F894EC91611103C020952E235E
:1003D00001C02E2B2C938FBF0895CF93DF9390E015
:1003E000FC01E255FF4F2491FC01E656FF4F84913A
:1003F000882361F190E0880F991FFC01E859FF4FB5
:10040000C591D491FC01EE58FF4FA591B4916111B3
:1004100009C09FB7F8948881209582238883EC9146
:100420002E230BC0623061F49FB7F8943881822F7D
:10043000809583238883EC912E2B2C939FBF06C03D
:100440008FB7F894E8812E2B28838FBFDF91CF914F
:1004500008953FB7F8948091410190914201A09195
:100460004301B091440126B5A89B05C02F3F19F068
:100470000196A11DB11D3FBFBA2FA92F982F882724
:10048000820F911DA11DB11DBC01CD0142E0660F7F
:10049000771F881F991F4A95D1F70895009769F033
:1004A000FC0101900020E9F73197AF01481B590B7F
:1004B000BC018BE491E00C94970080E090E00895FB
:1004C0008F929F92AF92BF920F931F93CF93DF9320
:1004D000CDB7DEB7A1970FB6F894DEBF0FBECDBF84
:1004E00019A2423008F44AE08E010F5D1F4F842E9E
:1004F000912CA12CB12CA50194010E947B07E62F21
:10050000B901CA0101501109EA3014F4E05D01C0DB
:10051000E95CD801EC93232B242B252B61F7C80130
:100520000E944E02A1960FB6F894DEBF0FBECDBF5B
:10053000DF91CF911F910F91BF90AF909F908F90BF
:1005400008950E94A3071F920F920FB60F921124D5
:100550002F933F934F935F936F937F938F939F93CB
:10056000AF93BF93EF93FF938BE491E00E940D0153
:10057000FF91EF91BF91AF919F918F917F916F917B
:100580005F914F913F912F910F900FBE0F901F9051
:1005900018951F920F920FB60F9211242F938F93DD
:1005A0009F93EF93FF93E0915B01F0915C01808159
:1005B000E0916101F091620182FD12C09081809111
:1005C00064018F5F8F7320916501821751F0E09174
:1005D0006401F0E0E55BFE4F958F8093640101C0FC
:1005E0008081FF91EF919F918F912F910F900FBE7E
:1005F0000F901F9018951F920F920FB60F92112413
:100600002F933F938F939F93AF93BF9380913D011F
:1006100090913E01A0913F01B091400130913C0189
:1006200023E0230F2D3720F40196A11DB11D05C035
:1006300026E8230F0296A11DB11D20933C01809353
:100640003D0190933E01A0933F01B0934001809102
:10065000410190914201A0914301B0914401019662
:10066000A11DB11D8093410190934201A0934301CC
:10067000B0934401BF91AF919F918F913F912F9182
:100680000F900FBE0F901F901895CF92DF92EF92B0
:10069000FF920F931F93E82FF92F05C00150110906
:1006A0002109310961F1908196239417B9F305C0AE
:1006B000015011092109310911F1908196239413F8
:1006C000F7CFC12CD12CE12CF12C0AC08FEFC81A26
:1006D000D80AE80AF80A0C151D052E053F0579F021
:1006E00080818623841791F36C2D7D2D8E2D9F2D77
:1006F0001F910F91FF90EF90DF90CF90089560E0F1
:1007000070E080E090E01F910F91FF90EF90DF90FC
:10071000CF900895789484B5826084BD84B581605B
:1007200084BD85B5826085BD85B5816085BD8091BC
:100730006E00816080936E00109281008091810034
:10074000826080938100809181008160809381002C
:10075000809180008160809380008091B1008460EE
:100760008093B1008091B00081608093B00080914F
:100770007A00846080937A0080917A00826080930E
:100780007A0080917A00816080937A0080917A006B
:10079000806880937A001092C10060E08CE00E9433
:1007A000ED0161E08BE00E94ED0161E08AE00E94D2
:1007B000ED01E0915B01F0915C0182E08083E091CA
:1007C0005701F09158011082E0915901F0915A01BE
:1007D0008FEC808310926301E0915F01F0916001E2
:1007E00086E08083E0915D01F0915E01808180610F
:1007F0008083E0915D01F0915E018081886080835B
:10080000E0915D01F0915E01808180688083E091DC
:100810005D01F0915E0180818F7D8083C3E2D0E035
:100820002AEBE22E20E0F22E36EAC32E30E0D32E61
:1008300061E08BE00E94A101CE010197F1F760E039
:100840008BE00E94A101F7016491F601249130E050
:10085000220F331F20573F4FF9018591949100E4F7
:1008600012E42FE030E0462F0E9445036115710528
:100870008105910539F0DC01CB010196A11DB11D67
:10088000BF7003C080E090E0DC0190934A01809348
:100890004901BC01990F880B990B0E94540626E967
:1008A00033E44BE05DE30E94090720E030E040E0E4
:1008B0005FE30E94090760934501709346018093AE
:1008C00047019093480182E191E00E944E0280909E
:1008D000490190904A01092C000CAA08BB08B7FEF8
:1008E0000CC08DE20E948C0066277727CB01681927
:1008F00079098A099B094AE003C04AE0C501B401AD
:100900000E9460028AE191E00E944E028EE191E035
:100910000E944E0281E291E00E944E0280904501C9
:1009200090904601A0904701B0904801A501940124
:10093000C501B4010E947607882319F08CE291E08A
:100940001AC024013501E89477F82FEF3FEF4FE705
:100950005FE7C301B2010E94760781110FC02FEF3C
:100960003FEF4FE75FE7C301B2010E941E06181672
:100970002CF480E391E00E944E0272C02FEF3FEF13
:100980004FE75FE4C501B4010E94040718161CF488
:1009900084E391E0F0CF2FEF3FEF4FE75FECC5012D
:1009A000B4010E941E0687FDF3CF20E030E0A901CC
:1009B000C501B4010E941E0687FF07C08DE20E9498
:1009C0008C00B7FAB094B7F8B0942AE037ED43EA58
:1009D0005BE3C501B4010E94B2052B013C010E94FA
:1009E00023064B015C010E9452069B01AC01C3012E
:1009F000B2010E94B1052B013C014AE0C501B401DE
:100A00000E9460028EE20E948C0020E030E040E212
:100A100051E4C301B2010E9409072B013C010E946D
:100A200023064B01A12CB12C4AE0C501B4010E9460
:100A30006002C501B4010E9452069B01AC01C301D2
:100A4000B2010E94B10520E030E040E251E40E9492
:100A500009070E94230680E090E04AE00E946002BD
:100A600088E391E00E944E028EE191E00E944E02E6
:100A70000E9429022B013C0188EE882E83E0982EEB
:100A8000A12CB12C0E942902DC01CB01841995090B
:100A9000A609B709883E9340A105B10558F0F1E0D9
:100AA0008F1A9108A108B10828EE420E23E0521EC9
:100AB000611C711C81149104A104B10419F7809088
:100AC000450190904601A0904701B090480120E078
:100AD00030E040E251E4C501B4010E940407181659
:100AE00064F420E030E040EA51E4C501B4010E9422
:100AF0001E0687FF02C061E001C060E08AE00E943C
:100B0000A1010E94970194CEEBE4F1E013821282DE
:100B100088EE93E0A0E0B0E084839583A683B7835A
:100B200084E091E09183808385EC90E095878487D1
:100B300084EC90E09787868780EC90E0918B808BA7
:100B400081EC90E0938B828B82EC90E0958B848B90
:100B500086EC90E0978B868B118E128E138E148EFE
:100B600008955058BB27AA270E94C9050C94CA06AD
:100B70000E94BC0638F00E94C30620F039F49F3F63
:100B800019F426F40C94B9060EF4E095E7FB0C94E6
:100B9000B306E92F0E94DB0658F3BA176207730702
:100BA0008407950720F079F4A6F50C94FD060EF461
:100BB000E0950B2EBA2FA02D0B01B90190010C016D
:100BC000CA01A0011124FF27591B99F0593F50F485
:100BD000503E68F11A16F040A22F232F342F4427DD
:100BE000585FF3CF469537952795A795F0405395D5
:100BF000C9F77EF41F16BA0B620B730B840BBAF0A5
:100C00009150A1F0FF0FBB1F661F771F881FC2F70F
:100C10000EC0BA0F621F731F841F48F48795779523
:100C20006795B795F7959E3F08F0B0CF9395880FDD
:100C300008F09927EE0F9795879508950E948F06E3
:100C400008F481E008950E94E30688F09F5798F029
:100C5000B92F9927B751B0F0E1F0660F771F881FC1
:100C6000991F1AF0BA95C9F714C0B13091F00E94DB
:100C7000FD06B1E008950C94FD06672F782F8827B4
:100C8000B85F39F0B93FCCF3869577956795B39502
:100C9000D9F73EF490958095709561957F4F8F4F71
:100CA0009F4F0895E89409C097FB3EF49095809576
:100CB000709561957F4F8F4F9F4F9923A9F0F92F22
:100CC00096E9BB279395F695879577956795B795A0
:100CD000F111F8CFFAF4BB0F11F460FF1BC06F5F86
:100CE0007F4F8F4F9F4F16C0882311F096E911C098
:100CF000772321F09EE8872F762F05C0662371F0B9
:100D000096E8862F70E060E02AF09A95660F771FCC
:100D1000881FDAF7880F9695879597F90895990FA8
:100D20000008550FAA0BE0E8FEEF16161706E807B5
:100D3000F907C0F012161306E407F50798F0621BD6
:100D4000730B840B950B39F40A2661F0232B242BAB
:100D5000252B21F408950A2609F4A140A6958FEFCA
:100D6000811D811D089597F99F6780E870E060E01C
:100D700008959FEF80EC089500240A941616170634
:100D800018060906089500240A941216130614067C
:100D900005060895092E0394000C11F4882352F0DF
:100DA000BB0F40F4BF2B11F460FF04C06F5F7F4F97
:100DB0008F4F9F4F089557FD9058440F551F59F07E
:100DC0005F3F71F04795880F97FB991F61F09F3F38
:100DD00079F087950895121613061406551FF2CF61
:100DE0004695F1DF08C0161617061806991FF1CFB1
:100DF00086957105610508940895E894BB276627D8
:100E00007727CB0197F908950E948F0608F48FEF9A
:100E100008950E941C070C94CA060E94BC0638F074
:100E20000E94C30620F0952311F00C94B3060C9495
:100E3000B90611240C94FE060E94DB0670F3959F00
:100E4000C1F3950F50E0551F629FF001729FBB27C1
:100E5000F00DB11D639FAA27F00DB11DAA1F649F5D
:100E60006627B00DA11D661F829F2227B00DA11D10
:100E7000621F739FB00DA11D621F839FA00D611D96
:100E8000221F749F3327A00D611D231F849F600DB7
:100E9000211D822F762F6A2F11249F5750409AF0E0
:100EA000F1F088234AF0EE0FFF1FBB1F661F771F6C
:100EB000881F91505040A9F79E3F510580F00C9437
:100EC000B3060C94FE065F3FE4F3983ED4F3869598
:100ED00077956795B795F795E7959F5FC1F7FE2BD7
:100EE000880F911D9695879597F908950E948F0612
:100EF000880B990B0895A1E21A2EAA1BBB1BFD01BA
:100F00000DC0AA1FBB1FEE1FFF1FA217B307E407E8
:100F1000F50720F0A21BB30BE40BF50B661F771F40
:100F2000881F991F1A9469F7609570958095909520
:100F30009B01AC01BD01CF010895EE0FFF1F05908D
:100F4000F491E02D099481E090E0F8940C94A807C6
:040F5000F894FFCF43
:100F5400000000002E019700C6007501F700D500BF
:100F6400E9005469656D706F3A00206D73000D0AD5
:100F74000044697374616E6369613A006E616E0066
:0C0F8400696E66006F76660020636D00E9
:00000001FF
