:100000000C945C000C946E000C946E000C946E00CA
:100010000C946E000C946E000C946E000C946E00A8
:100020000C946E000C946E000C946E000C946E0098
:100030000C946E000C946E000C946E000C946E0088
:100040000C94DD000C946E000C946E000C946E0009
:100050000C946E000C946E000C946E000C946E0068
:100060000C946E000C946E00000000002400270029
:100070002A0000000000250028002B0004040404CE
:100080000404040402020202020203030303030342
:10009000010204081020408001020408102001021F
:1000A00004081020000000080002010000030407FB
:1000B000000000000000000011241FBECFEFD8E0B8
:1000C000DEBFCDBF21E0A0E0B1E001C01D92A930AC
:1000D000B207E1F70E9427010C9410020C94000073
:1000E000EFEAF0E02491EBE9F0E09491E7E8F0E04A
:1000F000E491EE2309F43BC0222339F1233091F03F
:1001000038F42130A9F0223001F524B52F7D12C03A
:10011000273091F02830A1F02430B9F420918000EC
:100120002F7D03C0209180002F77209380000DC089
:1001300024B52F7724BD09C02091B0002F7703C0CC
:100140002091B0002F7D2093B000F0E0EE0FFF1F54
:10015000EE58FF4FA591B4912FB7F894EC9181110F
:1001600003C090959E2301C09E2B9C932FBF0895A2
:100170003FB7F8948091050190910601A091070185
:10018000B091080126B5A89B05C02F3F19F0019634
:10019000A11DB11D3FBFBA2FA92F982F8827820F0D
:1001A000911DA11DB11DBC01CD0142E0660F771F5D
:1001B000881F991F4A95D1F708951F920F920FB685
:1001C0000F9211242F933F938F939F93AF93BF93DD
:1001D0008091010190910201A0910301B09104016D
:1001E0003091000123E0230F2D3720F40196A11D4B
:1001F000B11D05C026E8230F0296A11DB11D209355
:1002000000018093010190930201A0930301B09338
:1002100004018091050190910601A0910701B09120
:1002200008010196A11DB11D80930501909306015F
:10023000A0930701B0930801BF91AF919F918F9157
:100240003F912F910F900FBE0F901F9018957894AB
:1002500084B5826084BD84B5816084BD85B58260CB
:1002600085BD85B5816085BD80916E00816080937C
:100270006E001092810080918100826080938100E5
:1002800080918100816080938100809180008160F5
:10029000809380008091B10084608093B100809150
:1002A000B00081608093B00080917A008460809378
:1002B0007A0080917A00826080937A0080917A003F
:1002C000816080937A0080917A00806880937A00C0
:1002D0001092C100CBE9D0E007E810E04FEA842E8D
:1002E00040E0942E50E0252E50E0352EA12CB12C6C
:1002F000FE012491F8018491882399F090E0880F01
:10030000991FFC01E859FF4FA591B4918E589F4F5A
:10031000FC01459154918FB7F8949C91292B2C9313
:100320008FBFA114B10411F480E043C0F4018491A3
:100330008330F9F048F48130B9F08230A1F584B50A
:10034000806284BDA8BC37C08730E9F0883019F1DD
:10035000843049F580918000806280938000B09263
:100360008B00A0928A0027C084B5806884BDA7BC9A
:1003700022C080918000806880938000B0928900C4
:10038000A092880018C08091B00080688093B0006F
:10039000A092B30010C08091B00080628093B00042
:1003A000A092B40008C0F0E8AF16B1040CF4BCCFC2
:1003B00081E00E9470000E94B8006B017C0182E322
:1003C000482E512C612C712C0E94B800DC01CB010D
:1003D0008C199D09AE09BF09883E9340A105B1055E
:1003E00058F021E0421A51086108710888EEC80EE1
:1003F00083E0D81EE11CF11C411451046104710416
:1004000019F7F2E0AF0EB11C28ECA216B10409F006
:100410006FCF2114310409F469CF0E94000066CF28
:04042000F894FFCF7E
:107E0000112484B714BE81FFF0D085E080938100F7
:107E100082E08093C00088E18093C10086E0809377
:107E2000C20080E18093C4008EE0C9D0259A86E02C
:107E300020E33CEF91E0309385002093840096BBD3
:107E4000B09BFECF1D9AA8958150A9F7CC24DD24C4
:107E500088248394B5E0AB2EA1E19A2EF3E0BF2EE7
:107E6000A2D0813461F49FD0082FAFD0023811F036
:107E7000013811F484E001C083E08DD089C08234E0
:107E800011F484E103C0853419F485E0A6D080C0E4
:107E9000853579F488D0E82EFF2485D0082F10E0AE
:107EA000102F00270E291F29000F111F8ED06801E7
:107EB0006FC0863521F484E090D080E0DECF843638
:107EC00009F040C070D06FD0082F6DD080E0C81688
:107ED00080E7D80618F4F601B7BEE895C0E0D1E017
:107EE00062D089930C17E1F7F0E0CF16F0E7DF06D8
:107EF00018F0F601B7BEE89568D007B600FCFDCFD4
:107F0000A601A0E0B1E02C9130E011968C91119780
:107F100090E0982F8827822B932B1296FA010C0160
:107F200087BEE89511244E5F5F4FF1E0A038BF0790
:107F300051F7F601A7BEE89507B600FCFDCF97BE46
:107F4000E89526C08437B1F42ED02DD0F82E2BD052
:107F50003CD0F601EF2C8F010F5F1F4F84911BD097
:107F6000EA94F801C1F70894C11CD11CFA94CF0C13
:107F7000D11C0EC0853739F428D08EE10CD085E9AC
:107F80000AD08FE07ACF813511F488E018D01DD067
:107F900080E101D065CF982F8091C00085FFFCCF94
:107FA0009093C60008958091C00087FFFCCF809118
:107FB000C00084FD01C0A8958091C6000895E0E648
:107FC000F0E098E1908380830895EDDF803219F02E
:107FD00088E0F5DFFFCF84E1DECF1F93182FE3DFCA
:107FE0001150E9F7F2DF1F91089580E0E8DFEE27F6
:047FF000FF270994CA
:027FFE00040479
:0400000300007E007B
:00000001FF
