:100000000C9461000C9473000C9473000C947300B6
:100010000C9473000C9473000C9473000C94730094
:100020000C9473000C9473000C9473000C94730084
:100030000C9473000C9473000C9473000C94730074
:100040000C94C3000C9473000C9473000C94730014
:100050000C9473000C9473000C9473000C94730054
:100060000C9473000C94730000000000240027001F
:100070002A000000000023002600290000000000E4
:10008000250028002B0004040404040404040202D4
:100090000202020203030303030301020408102007
:1000A0004080010204081020010204081020000012
:1000B0000008000201000003040700000000000027
:1000C000000011241FBECFEFD8E0DEBFCDBF21E07E
:1000D000A0E0B1E001C01D92AB30B207E1F70E9491
:1000E0000D010C9411020C940000833081F028F46F
:1000F000813099F08230A1F008958730A9F08830DE
:10010000B9F08430D1F4809180008F7D03C080915C
:1001100080008F7780938000089584B58F7702C028
:1001200084B58F7D84BD08958091B0008F7703C022
:100130008091B0008F7D8093B00008953FB7F89410
:100140008091050190910601A0910701B0910801ED
:1001500026B5A89B05C02F3F19F00196A11DB11D22
:100160003FBFBA2FA92F982F8827820F911DA11D5D
:10017000B11DBC01CD0142E0660F771F881F991F9A
:100180004A95D1F708951F920F920FB60F9211243E
:100190002F933F938F939F93AF93BF9380910101D0
:1001A00090910201A0910301B091040130910001EE
:1001B00023E0230F2D3720F40196A11DB11D05C0AA
:1001C00026E8230F0296A11DB11D20930001809304
:1001D000010190930201A0930301B0930401809167
:1001E000050190910601A0910701B09108010196C7
:1001F000A11DB11D8093050190930601A0930701F5
:10020000B0930801BF91AF919F918F913F912F9132
:100210000F900FBE0F901F901895789484B5826050
:1002200084BD84B5816084BD85B5826085BD85B59A
:10023000816085BD80916E00816080936E00109218
:100240008100809181008260809381008091810093
:100250008160809381008091800081608093800024
:100260008091B10084608093B1008091B000816082
:100270008093B00080917A00846080937A008091AE
:100280007A00826080937A0080917A008160809306
:100290007A0080917A00806880937A001092C10081
:1002A000C6EAD0E0FE01249102E910E0F801849151
:1002B0008823C9F090E0880F991FFC01E859FF4F8F
:1002C000A591B491FC01E458FF4F459154913FB77B
:1002D000F8949C91822F809598239C93FA019081A9
:1002E000892380833FBF55EAE52E50E0F52EF701C4
:1002F000249161E9C62E60E0D62EF6018491882310
:1003000099F090E0880F991FFC01E859FF4FA591E3
:10031000B491FC01E458FF4F859194918FB7F89404
:100320009C91292B2C938FBF3AEB232E30E0332E58
:10033000F1018491FE017490F80164906620A1F0AF
:1003400081110E947500E62DF0E0EE0FFF1FEE58C0
:10035000FF4FA591B4918C91782231E020E009F40F
:1003600030E0832F922F02C080E090E0282F217090
:1003700020930A01892B31F080910901F1E08F2748
:100380008093090160900901E9EBF0E08491F701A5
:100390007490F60154905520B1F081110E947500BF
:1003A000E52DF0E0EE0FFF1FE458FF4FA591B4914B
:1003B0008FB7F8949C91611003C07094792201C0AA
:1003C000792A7C928FBF0E949E004B015C0184E6DB
:1003D000482E512C612C712C0E949E00DC01CB0117
:1003E00088199909AA09BB09883E9340A105B1055E
:1003F00058F0F1E04F1A51086108710828EE820E9A
:1004000023E0921EA11CB11C41145104610471042B
:1004100019F780E090E0892B09F48ACF0E94000050
:0604200087CFF894FFCF26
:00000001FF
